{
  "contractName": "GPR_Node",
  "abi": [
    {
      "inputs": [
        {
          "internalType": "uint256",
          "name": "_nodeID",
          "type": "uint256"
        },
        {
          "internalType": "contract GPR_NodeFactory",
          "name": "_globalFactory",
          "type": "address"
        }
      ],
      "stateMutability": "nonpayable",
      "type": "constructor"
    },
    {
      "anonymous": false,
      "inputs": [
        {
          "indexed": false,
          "internalType": "address",
          "name": "propertyAddress",
          "type": "address"
        }
      ],
      "name": "GPR_Node_NewProperty",
      "type": "event"
    },
    {
      "inputs": [],
      "name": "nodeID",
      "outputs": [
        {
          "internalType": "uint256",
          "name": "",
          "type": "uint256"
        }
      ],
      "stateMutability": "view",
      "type": "function"
    },
    {
      "inputs": [
        {
          "internalType": "address",
          "name": "_owner",
          "type": "address"
        },
        {
          "internalType": "string",
          "name": "_location",
          "type": "string"
        },
        {
          "internalType": "string",
          "name": "_country",
          "type": "string"
        },
        {
          "internalType": "string",
          "name": "_city",
          "type": "string"
        },
        {
          "internalType": "string",
          "name": "_postcode",
          "type": "string"
        },
        {
          "internalType": "string",
          "name": "_localAddress",
          "type": "string"
        }
      ],
      "name": "createProperty",
      "outputs": [
        {
          "internalType": "address",
          "name": "",
          "type": "address"
        }
      ],
      "stateMutability": "nonpayable",
      "type": "function"
    },
    {
      "inputs": [],
      "name": "getProperties",
      "outputs": [
        {
          "internalType": "address[]",
          "name": "",
          "type": "address[]"
        }
      ],
      "stateMutability": "view",
      "type": "function"
    },
    {
      "inputs": [],
      "name": "getGlobalFactoryAddress",
      "outputs": [
        {
          "internalType": "address",
          "name": "",
          "type": "address"
        }
      ],
      "stateMutability": "view",
      "type": "function"
    }
  ],
  "bytecode": "0x60806040526107d060035f6101000a81548161ffff021916908361ffff1602179055503480156200002e575f80fd5b5060405162003ca738038062003ca7833981810160405281019062000054919062000152565b805f806101000a81548173ffffffffffffffffffffffffffffffffffffffff021916908373ffffffffffffffffffffffffffffffffffffffff16021790555081600181905550505062000197565b5f80fd5b5f819050919050565b620000ba81620000a6565b8114620000c5575f80fd5b50565b5f81519050620000d881620000af565b92915050565b5f73ffffffffffffffffffffffffffffffffffffffff82169050919050565b5f6200010982620000de565b9050919050565b5f6200011c82620000fd565b9050919050565b6200012e8162000110565b811462000139575f80fd5b50565b5f815190506200014c8162000123565b92915050565b5f80604083850312156200016b576200016a620000a2565b5b5f6200017a85828601620000c8565b92505060206200018d858286016200013c565b9150509250929050565b613b0280620001a55f395ff3fe608060405234801562000010575f80fd5b506004361062000050575f3560e01c806330d6118214620000545780633dff2228146200008a578063ad3f528214620000ac578063ec0cfd0b14620000ce575b5f80fd5b6200007260048036038101906200006c9190620006a8565b620000f0565b604051620000819190620007ec565b60405180910390f35b6200009462000416565b604051620000a3919062000821565b60405180910390f35b620000b66200041c565b604051620000c59190620007ec565b60405180910390f35b620000d862000443565b604051620000e7919062000903565b60405180910390f35b5f60028054905060035f9054906101000a900461ffff1661ffff16116200014e576040517f08c379a0000000000000000000000000000000000000000000000000000000008152600401620001459062000983565b60405180910390fd5b5f8054906101000a900473ffffffffffffffffffffffffffffffffffffffff1673ffffffffffffffffffffffffffffffffffffffff166324d7806c336040518263ffffffff1660e01b8152600401620001a89190620007ec565b602060405180830381865afa158015620001c4573d5f803e3d5ffd5b505050506040513d601f19601f82011682018060405250810190620001ea9190620009dd565b6200022c576040517f08c379a0000000000000000000000000000000000000000000000000000000008152600401620002239062000a5b565b60405180910390fd5b5f8054906101000a900473ffffffffffffffffffffffffffffffffffffffff1673ffffffffffffffffffffffffffffffffffffffff16634209fff1886040518263ffffffff1660e01b8152600401620002869190620007ec565b602060405180830381865afa158015620002a2573d5f803e3d5ffd5b505050506040513d601f19601f82011682018060405250810190620002c89190620009dd565b6200030a576040517f08c379a0000000000000000000000000000000000000000000000000000000008152600401620003019062000ac9565b60405180910390fd5b5f805f9054906101000a900473ffffffffffffffffffffffffffffffffffffffff168888888888886040516200034090620004d0565b62000352979695949392919062000bc4565b604051809103905ff0801580156200036c573d5f803e3d5ffd5b509050600281908060018154018082558091505060019003905f5260205f20015f9091909190916101000a81548173ffffffffffffffffffffffffffffffffffffffff021916908373ffffffffffffffffffffffffffffffffffffffff1602179055507f5a64e667ce7be2daca7f38eb1d5a2b1fbb4bfd69039db206c045372ac1df408a81604051620004009190620007ec565b60405180910390a1809150509695505050505050565b60015481565b5f805f9054906101000a900473ffffffffffffffffffffffffffffffffffffffff16905090565b60606002805480602002602001604051908101604052809291908181526020018280548015620004c657602002820191905f5260205f20905b815f9054906101000a900473ffffffffffffffffffffffffffffffffffffffff1673ffffffffffffffffffffffffffffffffffffffff16815260200190600101908083116200047c575b5050505050905090565b612e6a8062000c6383390190565b5f604051905090565b5f80fd5b5f80fd5b5f73ffffffffffffffffffffffffffffffffffffffff82169050919050565b5f6200051a82620004ef565b9050919050565b6200052c816200050e565b811462000537575f80fd5b50565b5f813590506200054a8162000521565b92915050565b5f80fd5b5f80fd5b5f601f19601f8301169050919050565b7f4e487b71000000000000000000000000000000000000000000000000000000005f52604160045260245ffd5b620005a08262000558565b810181811067ffffffffffffffff82111715620005c257620005c162000568565b5b80604052505050565b5f620005d6620004de565b9050620005e4828262000595565b919050565b5f67ffffffffffffffff82111562000606576200060562000568565b5b620006118262000558565b9050602081019050919050565b828183375f83830152505050565b5f620006426200063c84620005e9565b620005cb565b90508281526020810184848401111562000661576200066062000554565b5b6200066e8482856200061e565b509392505050565b5f82601f8301126200068d576200068c62000550565b5b81356200069f8482602086016200062c565b91505092915050565b5f805f805f8060c08789031215620006c557620006c4620004e7565b5b5f620006d489828a016200053a565b965050602087013567ffffffffffffffff811115620006f857620006f7620004eb565b5b6200070689828a0162000676565b955050604087013567ffffffffffffffff8111156200072a5762000729620004eb565b5b6200073889828a0162000676565b945050606087013567ffffffffffffffff8111156200075c576200075b620004eb565b5b6200076a89828a0162000676565b935050608087013567ffffffffffffffff8111156200078e576200078d620004eb565b5b6200079c89828a0162000676565b92505060a087013567ffffffffffffffff811115620007c057620007bf620004eb565b5b620007ce89828a0162000676565b9150509295509295509295565b620007e6816200050e565b82525050565b5f602082019050620008015f830184620007db565b92915050565b5f819050919050565b6200081b8162000807565b82525050565b5f602082019050620008365f83018462000810565b92915050565b5f81519050919050565b5f82825260208201905092915050565b5f819050602082019050919050565b62000870816200050e565b82525050565b5f62000883838362000865565b60208301905092915050565b5f602082019050919050565b5f620008a7826200083c565b620008b3818562000846565b9350620008c08362000856565b805f5b83811015620008f6578151620008da888262000876565b9750620008e7836200088f565b925050600181019050620008c3565b5085935050505092915050565b5f6020820190508181035f8301526200091d81846200089b565b905092915050565b5f82825260208201905092915050565b7f4c696d697420686173206265656e2072656163686564210000000000000000005f82015250565b5f6200096b60178362000925565b9150620009788262000935565b602082019050919050565b5f6020820190508181035f8301526200099c816200095d565b9050919050565b5f8115159050919050565b620009b981620009a3565b8114620009c4575f80fd5b50565b5f81519050620009d781620009ae565b92915050565b5f60208284031215620009f557620009f4620004e7565b5b5f62000a0484828501620009c7565b91505092915050565b7f4f6e6c7920666f722061646d696e7321000000000000000000000000000000005f82015250565b5f62000a4360108362000925565b915062000a508262000a0d565b602082019050919050565b5f6020820190508181035f83015262000a748162000a35565b9050919050565b7f756e6b6e6f776e207573657221000000000000000000000000000000000000005f82015250565b5f62000ab1600d8362000925565b915062000abe8262000a7b565b602082019050919050565b5f6020820190508181035f83015262000ae28162000aa3565b9050919050565b5f819050919050565b5f62000b1262000b0c62000b0684620004ef565b62000ae9565b620004ef565b9050919050565b5f62000b258262000af2565b9050919050565b5f62000b388262000b19565b9050919050565b62000b4a8162000b2c565b82525050565b5f81519050919050565b5f5b8381101562000b7957808201518184015260208101905062000b5c565b5f8484015250505050565b5f62000b908262000b50565b62000b9c818562000925565b935062000bae81856020860162000b5a565b62000bb98162000558565b840191505092915050565b5f60e08201905062000bd95f83018a62000b3f565b62000be86020830189620007db565b818103604083015262000bfc818862000b84565b9050818103606083015262000c12818762000b84565b9050818103608083015262000c28818662000b84565b905081810360a083015262000c3e818562000b84565b905081810360c083015262000c54818462000b84565b90509897505050505050505056fe60806040525f600a555f600b5f6101000a81548173ffffffffffffffffffffffffffffffffffffffff021916908373ffffffffffffffffffffffffffffffffffffffff1602179055505f600b60146101000a81548160ff0219169083151502179055503480156200006e575f80fd5b5060405162002e6a38038062002e6a8339818101604052810190620000949190620003fa565b865f806101000a81548173ffffffffffffffffffffffffffffffffffffffff021916908373ffffffffffffffffffffffffffffffffffffffff1602179055508560015f6101000a81548173ffffffffffffffffffffffffffffffffffffffff021916908373ffffffffffffffffffffffffffffffffffffffff16021790555084600290816200012491906200077a565b508360035f0190816200013891906200077a565b5082600360010190816200014d91906200077a565b5081600360020190816200016291906200077a565b50806003800190816200017691906200077a565b5042600781905550426008819055503360095f6101000a81548173ffffffffffffffffffffffffffffffffffffffff021916908373ffffffffffffffffffffffffffffffffffffffff160217905550505050505050506200085e565b5f604051905090565b5f80fd5b5f80fd5b5f73ffffffffffffffffffffffffffffffffffffffff82169050919050565b5f6200020e82620001e3565b9050919050565b5f620002218262000202565b9050919050565b620002338162000215565b81146200023e575f80fd5b50565b5f81519050620002518162000228565b92915050565b620002628162000202565b81146200026d575f80fd5b50565b5f81519050620002808162000257565b92915050565b5f80fd5b5f80fd5b5f601f19601f8301169050919050565b7f4e487b71000000000000000000000000000000000000000000000000000000005f52604160045260245ffd5b620002d6826200028e565b810181811067ffffffffffffffff82111715620002f857620002f76200029e565b5b80604052505050565b5f6200030c620001d2565b90506200031a8282620002cb565b919050565b5f67ffffffffffffffff8211156200033c576200033b6200029e565b5b62000347826200028e565b9050602081019050919050565b5f5b838110156200037357808201518184015260208101905062000356565b5f8484015250505050565b5f620003946200038e846200031f565b62000301565b905082815260208101848484011115620003b357620003b26200028a565b5b620003c084828562000354565b509392505050565b5f82601f830112620003df57620003de62000286565b5b8151620003f18482602086016200037e565b91505092915050565b5f805f805f805f60e0888a031215620004185762000417620001db565b5b5f620004278a828b0162000241565b97505060206200043a8a828b0162000270565b965050604088015167ffffffffffffffff8111156200045e576200045d620001df565b5b6200046c8a828b01620003c8565b955050606088015167ffffffffffffffff81111562000490576200048f620001df565b5b6200049e8a828b01620003c8565b945050608088015167ffffffffffffffff811115620004c257620004c1620001df565b5b620004d08a828b01620003c8565b93505060a088015167ffffffffffffffff811115620004f457620004f3620001df565b5b620005028a828b01620003c8565b92505060c088015167ffffffffffffffff811115620005265762000525620001df565b5b620005348a828b01620003c8565b91505092959891949750929550565b5f81519050919050565b7f4e487b71000000000000000000000000000000000000000000000000000000005f52602260045260245ffd5b5f60028204905060018216806200059257607f821691505b602082108103620005a857620005a76200054d565b5b50919050565b5f819050815f5260205f209050919050565b5f6020601f8301049050919050565b5f82821b905092915050565b5f600883026200060c7fffffffffffffffffffffffffffffffffffffffffffffffffffffffffffffffff82620005cf565b620006188683620005cf565b95508019841693508086168417925050509392505050565b5f819050919050565b5f819050919050565b5f620006626200065c620006568462000630565b62000639565b62000630565b9050919050565b5f819050919050565b6200067d8362000642565b620006956200068c8262000669565b848454620005db565b825550505050565b5f90565b620006ab6200069d565b620006b881848462000672565b505050565b5b81811015620006df57620006d35f82620006a1565b600181019050620006be565b5050565b601f8211156200072e57620006f881620005ae565b6200070384620005c0565b8101602085101562000713578190505b6200072b6200072285620005c0565b830182620006bd565b50505b505050565b5f82821c905092915050565b5f620007505f198460080262000733565b1980831691505092915050565b5f6200076a83836200073f565b9150826002028217905092915050565b620007858262000543565b67ffffffffffffffff811115620007a157620007a06200029e565b5b620007ad82546200057a565b620007ba828285620006e3565b5f60209050601f831160018114620007f0575f8415620007db578287015190505b620007e785826200075d565b86555062000856565b601f1984166200080086620005ae565b5f5b82811015620008295784890151825560018201915060208501945060208101905062000802565b8683101562000849578489015162000845601f8916826200073f565b8355505b6001600288020188555050505b505050505050565b6125fe806200086c5f395ff3fe608060405260043610610129575f3560e01c8063741abb5c116100aa578063a035b1fe1161006e578063a035b1fe1461038d578063a0d4ea7b146103b7578063aa9f55f5146103e1578063cf09e0d014610409578063d294b9f514610433578063e4a5dc921461045b57610129565b8063741abb5c146102bd5780637519ab50146102e7578063827bfbdf146103115780638ae5c6ae146103395780638da5cb5b1461036357610129565b80633295a29a116100f15780633295a29a1461020f5780633d2523f514610225578063516f279e1461026157806353cccdd91461028b5780636e76942d146102b357610129565b80630bdc77b81461012d57806313af4035146101575780631bf1aef51461017f5780631f4591dd146101bb5780633011e31d146101e5575b5f80fd5b348015610138575f80fd5b50610141610483565b60405161014e9190611605565b60405180910390f35b348015610162575f80fd5b5061017d60048036038101906101789190611659565b6104a8565b005b34801561018a575f80fd5b506101a560048036038101906101a09190611659565b61078c565b6040516101b2919061169e565b60405180910390f35b3480156101c6575f80fd5b506101cf610830565b6040516101dc9190611605565b60405180910390f35b3480156101f0575f80fd5b506101f9610855565b604051610206919061169e565b60405180910390f35b34801561021a575f80fd5b50610223610868565b005b348015610230575f80fd5b5061024b600480360381019061024691906116ea565b610a2f565b6040516102589190611605565b60405180910390f35b34801561026c575f80fd5b50610275610a6a565b604051610282919061179f565b60405180910390f35b348015610296575f80fd5b506102b160048036038101906102ac91906118eb565b610af6565b005b6102bb610c56565b005b3480156102c8575f80fd5b506102d1610ee1565b6040516102de9190611605565b60405180910390f35b3480156102f2575f80fd5b506102fb610f06565b60405161030891906119ce565b60405180910390f35b34801561031c575f80fd5b50610337600480360381019061033291906119e7565b610f0c565b005b348015610344575f80fd5b5061034d610ffc565b60405161035a9190611605565b60405180910390f35b34801561036e575f80fd5b5061037761108f565b6040516103849190611605565b60405180910390f35b348015610398575f80fd5b506103a16110b4565b6040516103ae91906119ce565b60405180910390f35b3480156103c2575f80fd5b506103cb6110ba565b6040516103d89190611ae5565b60405180910390f35b3480156103ec575f80fd5b50610407600480360381019061040291906116ea565b611145565b005b348015610414575f80fd5b5061041d6112a0565b60405161042a91906119ce565b60405180910390f35b34801561043e575f80fd5b5061045960048036038101906104549190611b2f565b6112a6565b005b348015610466575f80fd5b50610481600480360381019061047c9190611659565b61135b565b005b600b5f9054906101000a900473ffffffffffffffffffffffffffffffffffffffff1681565b8073ffffffffffffffffffffffffffffffffffffffff1660015f9054906101000a900473ffffffffffffffffffffffffffffffffffffffff1673ffffffffffffffffffffffffffffffffffffffff1603610537576040517f08c379a000000000000000000000000000000000000000000000000000000000815260040161052e90611ba4565b60405180910390fd5b5f8054906101000a900473ffffffffffffffffffffffffffffffffffffffff1673ffffffffffffffffffffffffffffffffffffffff166324d7806c336040518263ffffffff1660e01b815260040161058f9190611605565b602060405180830381865afa1580156105aa573d5f803e3d5ffd5b505050506040513d601f19601f820116820180604052508101906105ce9190611bd6565b61060d576040517f08c379a000000000000000000000000000000000000000000000000000000000815260040161060490611c4b565b60405180910390fd5b5f8054906101000a900473ffffffffffffffffffffffffffffffffffffffff1673ffffffffffffffffffffffffffffffffffffffff16634209fff1826040518263ffffffff1660e01b81526004016106659190611605565b602060405180830381865afa158015610680573d5f803e3d5ffd5b505050506040513d601f19601f820116820180604052508101906106a49190611bd6565b6106e3576040517f08c379a00000000000000000000000000000000000000000000000000000000081526004016106da90611cb3565b60405180910390fd5b5f60015f9054906101000a900473ffffffffffffffffffffffffffffffffffffffff1690508160015f6101000a81548173ffffffffffffffffffffffffffffffffffffffff021916908373ffffffffffffffffffffffffffffffffffffffff160217905550426008819055507f3ece7aca05141a3a11a2870315863a47f113cb5f485ef916ed4eaffc1e82e9308183604051610780929190611cd1565b60405180910390a15050565b5f805f90505f5b600c8054905081101561082657600c81815481106107b4576107b3611cf8565b5b905f5260205f20015f9054906101000a900473ffffffffffffffffffffffffffffffffffffffff1673ffffffffffffffffffffffffffffffffffffffff168473ffffffffffffffffffffffffffffffffffffffff160361081357600191505b808061081e90611d52565b915050610793565b5080915050919050565b60095f9054906101000a900473ffffffffffffffffffffffffffffffffffffffff1681565b600b60149054906101000a900460ff1681565b60015f9054906101000a900473ffffffffffffffffffffffffffffffffffffffff1673ffffffffffffffffffffffffffffffffffffffff163373ffffffffffffffffffffffffffffffffffffffff16036108f7576040517f08c379a00000000000000000000000000000000000000000000000000000000081526004016108ee90611de3565b60405180910390fd5b5f8054906101000a900473ffffffffffffffffffffffffffffffffffffffff1673ffffffffffffffffffffffffffffffffffffffff16634209fff1336040518263ffffffff1660e01b815260040161094f9190611605565b602060405180830381865afa15801561096a573d5f803e3d5ffd5b505050506040513d601f19601f8201168201806040525081019061098e9190611bd6565b6109cd576040517f08c379a00000000000000000000000000000000000000000000000000000000081526004016109c490611e4b565b60405180910390fd5b600c33908060018154018082558091505060019003905f5260205f20015f9091909190916101000a81548173ffffffffffffffffffffffffffffffffffffffff021916908373ffffffffffffffffffffffffffffffffffffffff160217905550565b600c8181548110610a3e575f80fd5b905f5260205f20015f915054906101000a900473ffffffffffffffffffffffffffffffffffffffff1681565b60028054610a7790611e96565b80601f0160208091040260200160405190810160405280929190818152602001828054610aa390611e96565b8015610aee5780601f10610ac557610100808354040283529160200191610aee565b820191905f5260205f20905b815481529060010190602001808311610ad157829003601f168201915b505050505081565b5f8054906101000a900473ffffffffffffffffffffffffffffffffffffffff1673ffffffffffffffffffffffffffffffffffffffff166324d7806c336040518263ffffffff1660e01b8152600401610b4e9190611605565b602060405180830381865afa158015610b69573d5f803e3d5ffd5b505050506040513d601f19601f82011682018060405250810190610b8d9190611bd6565b610b95575f80fd5b60405180608001604052808581526020018481526020018381526020018281525060035f820151815f019081610bcb9190612063565b506020820151816001019081610be19190612063565b506040820151816002019081610bf79190612063565b506060820151816003019081610c0d9190612063565b50905050426008819055507ffad5aba9f31b24d6c2c6cde07c9de4f26c8c6d67fe510e9421a360dbdf9719eb6003604051610c489190612236565b60405180910390a150505050565b600a5480341015610c9c576040517f08c379a0000000000000000000000000000000000000000000000000000000008152600401610c93906122a0565b60405180910390fd5b610ca53361078c565b610ce4576040517f08c379a0000000000000000000000000000000000000000000000000000000008152600401610cdb9061232e565b60405180910390fd5b3373ffffffffffffffffffffffffffffffffffffffff16600d5f9054906101000a900473ffffffffffffffffffffffffffffffffffffffff1673ffffffffffffffffffffffffffffffffffffffff1614610d73576040517f08c379a0000000000000000000000000000000000000000000000000000000008152600401610d6a90612396565b60405180910390fd5b5f60015f9054906101000a900473ffffffffffffffffffffffffffffffffffffffff1690503360015f6101000a81548173ffffffffffffffffffffffffffffffffffffffff021916908373ffffffffffffffffffffffffffffffffffffffff160217905550426008819055505f67ffffffffffffffff811115610df957610df86117c7565b5b604051908082528060200260200182016040528015610e275781602001602082028036833780820191505090505b50600c9080519060200190610e3d929190611524565b505f600d5f6101000a81548173ffffffffffffffffffffffffffffffffffffffff021916908373ffffffffffffffffffffffffffffffffffffffff1602179055505f600b60146101000a81548160ff021916908315150217905550610ea28147611477565b7fb5c34af755fecb937a7d66b1f9145b7439273bd4dfa692a1024e46bfebd1f771813334604051610ed5939291906123b4565b60405180910390a15050565b600d5f9054906101000a900473ffffffffffffffffffffffffffffffffffffffff1681565b60085481565b5f8054906101000a900473ffffffffffffffffffffffffffffffffffffffff1673ffffffffffffffffffffffffffffffffffffffff166324d7806c336040518263ffffffff1660e01b8152600401610f649190611605565b602060405180830381865afa158015610f7f573d5f803e3d5ffd5b505050506040513d601f19601f82011682018060405250810190610fa39190611bd6565b610fab575f80fd5b8060029081610fba9190612063565b50426008819055507fcb8d15457d6dc7be4a8cb3d1d72f9630c552c0ec898c3cfa1e3dd82570a02fee81604051610ff1919061179f565b60405180910390a150565b5f805f9054906101000a900473ffffffffffffffffffffffffffffffffffffffff1673ffffffffffffffffffffffffffffffffffffffff16638da5cb5b6040518163ffffffff1660e01b8152600401602060405180830381865afa158015611066573d5f803e3d5ffd5b505050506040513d601f19601f8201168201806040525081019061108a91906123fd565b905090565b60015f9054906101000a900473ffffffffffffffffffffffffffffffffffffffff1681565b600a5481565b6060600c80548060200260200160405190810160405280929190818152602001828054801561113b57602002820191905f5260205f20905b815f9054906101000a900473ffffffffffffffffffffffffffffffffffffffff1673ffffffffffffffffffffffffffffffffffffffff16815260200190600101908083116110f2575b5050505050905090565b60015f9054906101000a900473ffffffffffffffffffffffffffffffffffffffff168073ffffffffffffffffffffffffffffffffffffffff163373ffffffffffffffffffffffffffffffffffffffff16146111d5576040517f08c379a00000000000000000000000000000000000000000000000000000000081526004016111cc90612472565b60405180910390fd5b5f8211611217576040517f08c379a000000000000000000000000000000000000000000000000000000000815260040161120e906124da565b60405180910390fd5b81600a819055506001600b60146101000a81548160ff021916908315150217905550426008819055507fc5f709a8e5248168c2e373b22ba27fec0c6b89e4f8c4b828437962618b53d424600b5f9054906101000a900473ffffffffffffffffffffffffffffffffffffffff16600a546040516112949291906124f8565b60405180910390a15050565b60075481565b60015f9054906101000a900473ffffffffffffffffffffffffffffffffffffffff168073ffffffffffffffffffffffffffffffffffffffff163373ffffffffffffffffffffffffffffffffffffffff1614611336576040517f08c379a000000000000000000000000000000000000000000000000000000000815260040161132d90612472565b60405180910390fd5b81600b60146101000a81548160ff021916908315150217905550426008819055505050565b60015f9054906101000a900473ffffffffffffffffffffffffffffffffffffffff168073ffffffffffffffffffffffffffffffffffffffff163373ffffffffffffffffffffffffffffffffffffffff16146113eb576040517f08c379a00000000000000000000000000000000000000000000000000000000081526004016113e290612472565b60405180910390fd5b6113f43361078c565b611433576040517f08c379a000000000000000000000000000000000000000000000000000000000815260040161142a9061232e565b60405180910390fd5b81600d5f6101000a81548173ffffffffffffffffffffffffffffffffffffffff021916908373ffffffffffffffffffffffffffffffffffffffff1602179055505050565b5f8273ffffffffffffffffffffffffffffffffffffffff168260405161149c9061254c565b5f6040518083038185875af1925050503d805f81146114d6576040519150601f19603f3d011682016040523d82523d5f602084013e6114db565b606091505b505090508061151f576040517f08c379a0000000000000000000000000000000000000000000000000000000008152600401611516906125aa565b60405180910390fd5b505050565b828054828255905f5260205f2090810192821561159a579160200282015b82811115611599578251825f6101000a81548173ffffffffffffffffffffffffffffffffffffffff021916908373ffffffffffffffffffffffffffffffffffffffff16021790555091602001919060010190611542565b5b5090506115a791906115ab565b5090565b5b808211156115c2575f815f9055506001016115ac565b5090565b5f73ffffffffffffffffffffffffffffffffffffffff82169050919050565b5f6115ef826115c6565b9050919050565b6115ff816115e5565b82525050565b5f6020820190506116185f8301846115f6565b92915050565b5f604051905090565b5f80fd5b5f80fd5b611638816115e5565b8114611642575f80fd5b50565b5f813590506116538161162f565b92915050565b5f6020828403121561166e5761166d611627565b5b5f61167b84828501611645565b91505092915050565b5f8115159050919050565b61169881611684565b82525050565b5f6020820190506116b15f83018461168f565b92915050565b5f819050919050565b6116c9816116b7565b81146116d3575f80fd5b50565b5f813590506116e4816116c0565b92915050565b5f602082840312156116ff576116fe611627565b5b5f61170c848285016116d6565b91505092915050565b5f81519050919050565b5f82825260208201905092915050565b5f5b8381101561174c578082015181840152602081019050611731565b5f8484015250505050565b5f601f19601f8301169050919050565b5f61177182611715565b61177b818561171f565b935061178b81856020860161172f565b61179481611757565b840191505092915050565b5f6020820190508181035f8301526117b78184611767565b905092915050565b5f80fd5b5f80fd5b7f4e487b71000000000000000000000000000000000000000000000000000000005f52604160045260245ffd5b6117fd82611757565b810181811067ffffffffffffffff8211171561181c5761181b6117c7565b5b80604052505050565b5f61182e61161e565b905061183a82826117f4565b919050565b5f67ffffffffffffffff821115611859576118586117c7565b5b61186282611757565b9050602081019050919050565b828183375f83830152505050565b5f61188f61188a8461183f565b611825565b9050828152602081018484840111156118ab576118aa6117c3565b5b6118b684828561186f565b509392505050565b5f82601f8301126118d2576118d16117bf565b5b81356118e284826020860161187d565b91505092915050565b5f805f806080858703121561190357611902611627565b5b5f85013567ffffffffffffffff8111156119205761191f61162b565b5b61192c878288016118be565b945050602085013567ffffffffffffffff81111561194d5761194c61162b565b5b611959878288016118be565b935050604085013567ffffffffffffffff81111561197a5761197961162b565b5b611986878288016118be565b925050606085013567ffffffffffffffff8111156119a7576119a661162b565b5b6119b3878288016118be565b91505092959194509250565b6119c8816116b7565b82525050565b5f6020820190506119e15f8301846119bf565b92915050565b5f602082840312156119fc576119fb611627565b5b5f82013567ffffffffffffffff811115611a1957611a1861162b565b5b611a25848285016118be565b91505092915050565b5f81519050919050565b5f82825260208201905092915050565b5f819050602082019050919050565b611a60816115e5565b82525050565b5f611a718383611a57565b60208301905092915050565b5f602082019050919050565b5f611a9382611a2e565b611a9d8185611a38565b9350611aa883611a48565b805f5b83811015611ad8578151611abf8882611a66565b9750611aca83611a7d565b925050600181019050611aab565b5085935050505092915050565b5f6020820190508181035f830152611afd8184611a89565b905092915050565b611b0e81611684565b8114611b18575f80fd5b50565b5f81359050611b2981611b05565b92915050565b5f60208284031215611b4457611b43611627565b5b5f611b5184828501611b1b565b91505092915050565b7f43616e6e6f74206265207468652073616d6520616464726573730000000000005f82015250565b5f611b8e601a8361171f565b9150611b9982611b5a565b602082019050919050565b5f6020820190508181035f830152611bbb81611b82565b9050919050565b5f81519050611bd081611b05565b92915050565b5f60208284031215611beb57611bea611627565b5b5f611bf884828501611bc2565b91505092915050565b7f61646d696e73206f6e6c792100000000000000000000000000000000000000005f82015250565b5f611c35600c8361171f565b9150611c4082611c01565b602082019050919050565b5f6020820190508181035f830152611c6281611c29565b9050919050565b7f756e6b6e6f776e207573657221000000000000000000000000000000000000005f82015250565b5f611c9d600d8361171f565b9150611ca882611c69565b602082019050919050565b5f6020820190508181035f830152611cca81611c91565b9050919050565b5f604082019050611ce45f8301856115f6565b611cf160208301846115f6565b9392505050565b7f4e487b71000000000000000000000000000000000000000000000000000000005f52603260045260245ffd5b7f4e487b71000000000000000000000000000000000000000000000000000000005f52601160045260245ffd5b5f611d5c826116b7565b91507fffffffffffffffffffffffffffffffffffffffffffffffffffffffffffffffff8203611d8e57611d8d611d25565b5b600182019050919050565b7f4f776e65722063616e6e6f7420626520627579657221000000000000000000005f82015250565b5f611dcd60168361171f565b9150611dd882611d99565b602082019050919050565b5f6020820190508181035f830152611dfa81611dc1565b9050919050565b7f756e6b6e6f776e207573657220616464726573732100000000000000000000005f82015250565b5f611e3560158361171f565b9150611e4082611e01565b602082019050919050565b5f6020820190508181035f830152611e6281611e29565b9050919050565b7f4e487b71000000000000000000000000000000000000000000000000000000005f52602260045260245ffd5b5f6002820490506001821680611ead57607f821691505b602082108103611ec057611ebf611e69565b5b50919050565b5f819050815f5260205f209050919050565b5f6020601f8301049050919050565b5f82821b905092915050565b5f60088302611f227fffffffffffffffffffffffffffffffffffffffffffffffffffffffffffffffff82611ee7565b611f2c8683611ee7565b95508019841693508086168417925050509392505050565b5f819050919050565b5f611f67611f62611f5d846116b7565b611f44565b6116b7565b9050919050565b5f819050919050565b611f8083611f4d565b611f94611f8c82611f6e565b848454611ef3565b825550505050565b5f90565b611fa8611f9c565b611fb3818484611f77565b505050565b5b81811015611fd657611fcb5f82611fa0565b600181019050611fb9565b5050565b601f82111561201b57611fec81611ec6565b611ff584611ed8565b81016020851015612004578190505b61201861201085611ed8565b830182611fb8565b50505b505050565b5f82821c905092915050565b5f61203b5f1984600802612020565b1980831691505092915050565b5f612053838361202c565b9150826002028217905092915050565b61206c82611715565b67ffffffffffffffff811115612085576120846117c7565b5b61208f8254611e96565b61209a828285611fda565b5f60209050601f8311600181146120cb575f84156120b9578287015190505b6120c38582612048565b86555061212a565b601f1984166120d986611ec6565b5f5b82811015612100578489015182556001820191506020850194506020810190506120db565b8683101561211d5784890151612119601f89168261202c565b8355505b6001600288020188555050505b505050505050565b5f82825260208201905092915050565b5f815461214e81611e96565b6121588186612132565b9450600182165f81146121725760018114612188576121ba565b60ff1983168652811515602002860193506121ba565b61219185611ec6565b5f5b838110156121b257815481890152600182019150602081019050612193565b808801955050505b50505092915050565b5f608083015f8084018583035f8701526121dd8382612142565b9250506001840185830360208701526121f68382612142565b92505060028401858303604087015261220f8382612142565b9250506003840185830360608701526122288382612142565b925050819250505092915050565b5f6020820190508181035f83015261224e81846121c3565b905092915050565b7f496e73756666696369656e7420616d6f756e74210000000000000000000000005f82015250565b5f61228a60148361171f565b915061229582612256565b602082019050919050565b5f6020820190508181035f8301526122b78161227e565b9050919050565b7f4e6f2073756368206164647265737320696e2062757952657175657374734c695f8201527f7374210000000000000000000000000000000000000000000000000000000000602082015250565b5f61231860238361171f565b9150612323826122be565b604082019050919050565b5f6020820190508181035f8301526123458161230c565b9050919050565b7f54686973206164647265737320776173206e6f7420617070726f7665642100005f82015250565b5f612380601e8361171f565b915061238b8261234c565b602082019050919050565b5f6020820190508181035f8301526123ad81612374565b9050919050565b5f6060820190506123c75f8301866115f6565b6123d460208301856115f6565b6123e160408301846119bf565b949350505050565b5f815190506123f78161162f565b92915050565b5f6020828403121561241257612411611627565b5b5f61241f848285016123e9565b91505092915050565b7f556e617574686f72697a656421000000000000000000000000000000000000005f82015250565b5f61245c600d8361171f565b915061246782612428565b602082019050919050565b5f6020820190508181035f83015261248981612450565b9050919050565b7f5072696365206d757374206265203e20302100000000000000000000000000005f82015250565b5f6124c460128361171f565b91506124cf82612490565b602082019050919050565b5f6020820190508181035f8301526124f1816124b8565b9050919050565b5f60408201905061250b5f8301856115f6565b61251860208301846119bf565b9392505050565b5f81905092915050565b50565b5f6125375f8361251f565b915061254282612529565b5f82019050919050565b5f6125568261252c565b9150819050919050565b7f4661696c656420746f2073656e642045746865720000000000000000000000005f82015250565b5f61259460148361171f565b915061259f82612560565b602082019050919050565b5f6020820190508181035f8301526125c181612588565b905091905056fea2646970667358221220439fc50fa06b70823877968723908eeae5d1fc3559ef5aeff335dc5c2db3d23464736f6c63430008140033a2646970667358221220112355d272827b2b111b58f1d4f3cfe8dbb545313f09a834accefa333abc9d3b64736f6c63430008140033",
  "immutableReferences": {},
  "source": "// SPDX-License-Identifier: GPL-3.0\npragma solidity >=0.7.0 < 0.9.0;\n\nimport \"./GPR_Utils.sol\";\nimport \"./GPR_NodeFactory.sol\";\nimport \"./GPR_Property.sol\";\n\ncontract GPR_Node is BaseAccess {\n    GPR_NodeFactory private globalFactory;\n    uint public nodeID;\n    address[] internal properties;\n    uint16 limit = 2000;\n\n    constructor(uint _nodeID, GPR_NodeFactory _globalFactory) {\n        globalFactory = _globalFactory;\n        nodeID = _nodeID;\n    }\n\n    event GPR_Node_NewProperty (address propertyAddress);\n\n    function createProperty(\n        address _owner, \n        string memory _location, \n        string memory _country, \n        string memory _city, \n        string memory _postcode, \n        string memory _localAddress\n    ) external returns(address) {\n        require(limit > properties.length, 'Limit has been reached!');\n        require(globalFactory.isAdmin(msg.sender), 'Only for admins!');\n        require(globalFactory.isUser(_owner), 'unknown user!');\n        address newPropertyAddr = address(new GPR_Property(globalFactory, _owner, _location, _country, _city, _postcode, _localAddress));\n        properties.push(newPropertyAddr);\n        emit GPR_Node_NewProperty(newPropertyAddr);\n        return newPropertyAddr;\n    }\n\n    function getProperties() public view returns (address[] memory) {\n        return properties;\n    }\n\n    function getGlobalFactoryAddress() public view returns (address){\n        return address(globalFactory);\n    }\n}",
  "sourcePath": "/home/eugene-mac/playfround/lottery-contract/contracts/GPR_Node.sol",
  "compiler": {
    "name": "solc",
    "version": "0.8.20+commit.a1b79de6.Emscripten.clang"
  },
  "schemaVersion": "3.4.14",
  "updatedAt": "2023-07-07T00:44:05.478Z",
  "devdoc": {
    "kind": "dev",
    "methods": {},
    "version": 1
  },
  "userdoc": {
    "kind": "user",
    "methods": {},
    "version": 1
  }
}